:020000040800F2
:10000000400500209D010008531100089F100008C2
:1000100051110008A9020008FD13000800000000AB
:100020000000000000000000000000005711000860
:10003000A103000800000000551100085911000834
:10004000B7010008B7010008B7010008B7010008B0
:10005000B7010008B7010008B7010008B7010008A0
:10006000B7010008B7010008B7010008B701000890
:10007000B7010008B7010008B7010008B701000880
:10008000B7010008B7010008B7010008B701000870
:10009000B7010008B7010008B7010008B701000860
:1000A000B7010008B7010008B7010008B701000850
:1000B000B7010008B7010008B7010008B701000840
:1000C000B7010008B7010008B7010008B701000830
:1000D000B701000895130008B7010008B701000830
:1000E000B7010008B7010008B7010008B701000810
:1000F000B7010008B7010008B7010008B701000800
:10010000B7010008B7010008B7010008B7010008EF
:10011000B7010008B7010008B7010008B7010008DF
:10012000B7010008B7010008AD020008B7010008D8
:10013000B7010008B7010008B7010008B7010008BF
:10014000B7010008B7010008B7010008B7010008AF
:10015000B7010008B7010008B9020008B70100089C
:10016000B7010008B7010008B7010008B70100088F
:10017000B7010008B7010008B7010008000000003F
:10018000B7010008B7010008DFF80CD000F07AF8DA
:1001900000480047891400084005002006488047B1
:1001A00006480047FEE7FEE7FEE7FEE7FEE7FEE75C
:1001B000FEE7FEE7FEE7FEE7E1110008890100081F
:1001C0002DE9F05F0546002092469B46884606468C
:1001D000814640241BE0284641464746224600F01F
:1001E00041F853465A46C01A914110D31146184659
:1001F000224600F028F82D1A67EB01084F462246E8
:100200000120002100F01FF817EB00094E41201ECD
:10021000A4F10104DFDC484631462A464346BDE8E6
:10022000F09FD2B201E000F8012B491EFBD27047CB
:100230000022F6E710B513460A4604461946FFF7B2
:10024000F0FF204610BD202A04DB203A00FA02F11C
:10025000002070479140C2F1200320FA03F31943B4
:1002600090407047202A04DB203A21FA02F0002156
:10027000704721FA02F3D040C2F1200291400843B6
:1002800019467047064C074D06E0E06840F0010350
:1002900094E8070098471034AC42F6D3FFF778FF94
:1002A000EC1400080C150008FEE70000014800F0FF
:1002B00079B80000B8000020014800F073B80000D1
:1002C0005800002001681823CAB2103AB2FBF3F2BA
:1002D000054B6FF30901032A9B5CC36500D9091D17
:1002E0008165084670470000CC14000810B501462F
:1002F00000208B698A6A4FF0C07453B1B3F5005F78
:1003000015D072B1012A0CD0022A0AD0032A09D1D1
:1003100004E01AB1012A06D0022A03D1C96AC90130
:1003200000D5012010BDC96AA142FAD010BD002A33
:10033000F7D0012AF2D0022AF3D0032AF3D010BD5D
:10034000144B10B51A68546944F0400454611A689B
:10035000D36843F01003D3600F4A13681C6824F07D
:1003600001041C6013681C68E407F7D114680B4B88
:10037000A3601368D8601368186110684160106842
:10038000016841F4802101601068016841F00101B9
:10039000016010BD18000020B800002004100140CA
:1003A000704770472DE9F84304464FF00009CDF837
:1003B000009063484FF41651A56D0068B0FBF1F74B
:1003C0002E6894F85C10082000FA01F131420FD039
:1003D00021680A6852070BD50A6822F004020A60F5
:1003E00094F85C108840A860606D40F00100606582
:1003F00094F85C104FF0010808FA01F0304208D080
:1004000021684969090604D5A860606D40F00200C2
:10041000606594F85C1004208840304208D0216860
:100420000968890704D5A860606D40F00400606524
:1004300094F85C1010208840304218D02168096878
:10044000090714D5A86020680168490304D500682D
:10045000000308D5A16C07E00168C90503D4016851
:1004600021F008010160216C09B12046884794F809
:100470005C1020208840304231D021680968C906CC
:100480002DD5A86094F8350005282068016806D0AD
:10049000490347D5006800031DD4616C1CE021F0BE
:1004A000160101602068416921F080014161206CE2
:1004B00008B9A06C20B12068016821F00801016032
:1004C00094F85C103F208840A86084F8349084F849
:1004D0003580216D1FE0E16B09B120468847606DD2
:1004E00000282BD0606DC00714D0052084F835009B
:1004F0002068016821F0010101600098401C009013
:10050000B84203D820680068C007F6D184F8349058
:1005100084F83580E16C002910D001B02046BDE898
:10052000F04308470168C905D5D4016821F01001DE
:10053000016084F8349084F83580CCE7BDE8F88316
:10054000100000202DE9F041044600F041F9064674
:100550005CB1002584F83450022084F8350020680E
:10056000016821F0010101600DE00120BDE8F0818A
:1005700000F02EF9801B052805D920206065032096
:1005800084F83500F2E720680068C007F0D12268DF
:10059000116820480140D4E901031843D4E9033627
:1005A0003343184363691843A3691843E369184345
:1005B000236A18430843616A042903D1D4E90B1361
:1005C00019430843106020684069666A20F00701FB
:1005D00030460E43012704280CD1A06A0643E06A86
:1005E00040B12046FFF782FE20B14020606584F8CC
:1005F0003570BAE7206846612046FFF763FE94F83D
:100600005C203F2191408160656584F83570002051
:10061000ACE700003F8010F02DE9F84F00224FF0CA
:10062000010803254FF00F0E0B6808FA02F423406F
:10063000A3426ED14E68012E05D0022E03D0112E9A
:1006400001D0122E12D186684FEA420C05FA0CF73F
:10065000BE43CF6807FA0CF7374387604668A64366
:100660000C79C4F30014944034434460C6685700C6
:1006700005FA07FC8C6826EA0C06BC403443C460CB
:100680004C68022C01D0122C13D1D40800EB840446
:10069000A346D4F8209054074FEAD46A0EFA0AF61B
:1006A00029EA06090E6906FA0AF646EA0906CBF8AF
:1006B000206006680C7926EA0C0604F00304BC40AE
:1006C000344304604C68E40065D5364C266846F433
:1006D00080462660246822F0030604F480440094D7
:1006E000314C3444A446D4F808489607370F0EFA24
:1006F00007F6B4432D4EB04201D1002624E02C4E23
:10070000B04201D101261FE02A4EB04202D102269A
:100710001AE040E0284EB04201D1032614E0274EF3
:10072000B04201D104260FE0254EB04201D105268A
:100730000AE0244EB04201D1062605E0224EB04226
:1007400001D1072600E00826BE402643CCF8086801
:100750001E4E34684F689C43FF0300D51C43346031
:100760001A4C241D26684F689E43BF0300D51E43C4
:100770002660164E083634684F689C43FF0200D549
:100780001C433460114E0C3634684F689C43BF02E2
:1007900000D51C433460521C102AFFF445AFBDE85D
:1007A000F88F000044380240003001400000024051
:1007B0000004024000080240000C02400010024009
:1007C0000014024000180240001C0240003C01409E
:1007D00001488068704700000400002002488168DA
:1007E0000278114481607047040000200B4810B566
:1007F000016841F400710160016841F480610160A9
:10080000016841F480710160032000F06FF800205E
:1008100000F006F800F024F8002010BD003C024073
:1008200070B50D4D04464FF47A712878B1FBF0F0A5
:100830000A490968B1FBF0F000F004FB48B9102C3C
:1008400007D200222146501E00F030F800206C60D4
:1008500070BD012070BD00000400002010000020C9
:100860000A4808B5016841F480410160006800F45D
:10087000804000900548001F016841F080510160F0
:10088000006800F08050009008BD0000443802402D
:10089000002809DB00F01F0201219140400980007F
:1008A00000F1E020C0F8001170470000F0B40E4BDA
:1008B0001B680C46C3F30223C3F10705042D00D9BE
:1008C0000425191D072901D2002300E0DB1E0126A3
:1008D00006FA05F1491E214099409E40761E1640B9
:1008E0003143F0BC00F094BD0CED00E0064900F08F
:1008F000070208684FF6FF03184040EA0220034A47
:1009000010430860704700000CED00E00000FA059D
:100910002DE9F0470E46050065D0DFF81481D8F8C0
:100920000000F7B200F00F00B04207D288F8007064
:10093000D8F8000000F00F00B04254D128683D4CB8
:10094000810712D5400703D5206840F4E0502060AD
:100950002878000703D5206840F4604020602068B4
:10096000A96820F0F000084320602878C0072DD047
:10097000304968680839012812D0022813D00328AA
:1009800011D00968890700292DDA216821F00301B7
:1009900001432160FFF71CFF814641F2883A0EE0D7
:1009A00009688903EFE709688901ECE7FFF710FFA1
:1009B000A0EB0901514502D90320BDE8F08720686A
:1009C000696800F00C00B0EB810FEFD1D8F800108F
:1009D000404601F00F01B14207D90770006800F0EE
:1009E0000F00B04201D00120E7E72878400705D585
:1009F0002068E96820F4E050084320602878000768
:100A000006D52068296920F4604040EAC1002060D2
:100A100000F038F82168084AC1F30311515CC8405E
:100A20000649086006480068FFF7FAFE0020C4E7A0
:100A3000003C024008380240D41400081000002096
:100A4000080000200448054900680968044AC1F309
:100A50008221515CC84070471000002008380240D5
:100A6000E41400080448054900680968044AC1F311
:100A70004231515CC84070471000002008380240E5
:100A8000E4140008154810B5006810F00C02144872
:100A900013D01449042A0FD0082A0ED10F4C241F5A
:100AA0002268236802F03F025B0207D52068C0F38A
:100AB0008810A0FB010106E0084610BD2168C1F3C3
:100AC0008811A1FB00010023FFF77AFB2168C1F325
:100AD0000141491C4900B0FBF1F010BD083802404B
:100AE0000024F400001BB7002DE9F84F04006ED07D
:100AF0002078DFF83C93C007A9F104054AD009F13A
:100B000004000168C1F38101012908D00068C0F325
:100B1000810002280AD1D9F80000400206D52868D1
:100B2000800337D560680028E1D033E06068B0F515
:100B3000803F10D0B0F5A02F286810D020F480306E
:100B40002860286820F4802028606068A8B1FFF73A
:100B50003FFE06460DE0286840F48030F4E740F49C
:100B600080202860F7E700BFFFF732FE801B642873
:100B700073D828688003F7D50CE0FFF729FE0646F6
:100B800005E000BFFFF724FE801B6428F0D828682A
:100B90008003F7D42078DFF89C8280074FF0000AAA
:100BA0003ED5A348001D016811F00C0F08D0006865
:100BB000C0F3810002280BD1D9F80000400207D40D
:100BC0002868800716D5E068012800D112E02BE1E3
:100BD000E068B8B10120C8F80000FFF7F9FD06464B
:100BE00005E000BFFFF7F4FD801B0228C0D828688D
:100BF0008007F7D52868216920F0F80040EAC10095
:100C000028600DE0C8F800A0FFF7E2FD064604E00A
:100C1000FFF7DEFD801B02281FD828688007F7D465
:100C20002078000722D5824E83486169703671B101
:100C300001210160FFF7CCFD074604E0FFF7C8FD86
:100C4000C01B022809D830688007F7D50EE0C0F82D
:100C500000A0FFF7BDFD074605E082E0FFF7B8FD05
:100C6000C01B02287DD830688007F7D42078400761
:100C700068D5DFF8BCB100270BF13C0BDBF80000B6
:100C8000C0000BD4DBF8001041F08051CBF800100D
:100C9000DBF80000012700F080500090674E3068BC
:100CA000C00510D4306840F480703060FFF790FDCC
:100CB000009005E0FFF78CFD0099401A022850D8FB
:100CC0003068C005F6D55A4EA0686C3601280FD0A2
:100CD0000528306810D020F001003060306820F026
:100CE00004003060A068B8B1FFF772FD00900FE01B
:100CF000306840F00100F4E740F004003060F7E7AE
:100D0000FFF766FD0099411A41F28830814266D8AA
:100D100030688007F4D50EE0FFF75AFD009007E039
:100D2000FFF756FD0099411A41F28830814256D8AA
:100D300030688007F4D42FB1DBF8001021F0805127
:100D4000CBF80010A069C8B33949091D0968C1F37F
:100D5000810102294AD00228504607D0C8F8600015
:100D600000E03CE0FFF734FD04463BE04746C8F8AE
:100D70006000FFF72DFD064605E000BFFFF728FDE8
:100D8000801B02282BD828688001F7D4D4E90701FA
:100D90000843A16A2A4A490802EB0141626A41EA12
:100DA0008211084394F82C1040EA0161C9F8001040
:100DB00001203866FFF70CFD044606E036E000BF70
:100DC000FFF706FD001B022809D828688001F7D527
:100DD0002CE000BFFFF7FCFC001B022802D9032017
:100DE000BDE8F88F28688001F4D41FE00128F7D00F
:100DF000D9F80000E26900F48001914214D1226A1E
:100E000000F03F0191420FD147F6C071626A014084
:100E1000914209D1A26A00F44031914204D1E16AC1
:100E200000F07060884201D00120D9E70020D7E7A8
:100E30000438024000004742800E474200700040E4
:100E40000000FFFF10B5401EB0F1807F01D30120EC
:100E500010BD4FF0E02460610F21601700F0D8FA58
:100E60000020A06107202061002010BD70B50400A3
:100E700004D094F83900002510B106E0012070BDBF
:100E800084F83850204600F023F8242084F83900F4
:100E90002068C16821F40051C160204600F0B4F917
:100EA0002068016921F4904101612068416921F0C5
:100EB0002A0141612068C16841F40051C160E563C5
:100EC000202084F8390084F83A00002070BD00002A
:100ED0002DE9F04387B0064614216846FFF7A8F9CC
:100EE0003A49306888426DD139480024016841F0A0
:100EF00010010160006800F01000059034481438BB
:100F0000016841F002010160016801F002010591F0
:100F1000016841F0010101600068022500F0010054
:100F200005908020CDE9000502AA03274FF00708AD
:100F300082E8900169462748FFF76EFB2802CDE959
:100F4000000502AA694682E890012348FFF764FB86
:100F5000234D22484FF00067E5E8020740204FF498
:100F60008068A5E811014FF4403945F814491C4840
:100F7000AC61C5E907496C62FFF7E4FA08B1FFF715
:100F800010FA3563AE63164D144860357838286022
:100F9000C5E90174C5E9034880156C61C5E90640DF
:100FA000C5E908942846FFF7CDFA08B1FFF7F9F92B
:100FB0007563002211462520AE63FFF777FC2520DC
:100FC000FFF766FC07B0BDE8F083000000100140A9
:100FD000443802400004024000000240B86402406D
:100FE000580000202DE9F843044690F839001F46C8
:100FF00016460D46202850D1B5B1AEB194F8380050
:1010000001284AD0012084F838004FF00008C4F8C5
:101010003C80212084F83900FFF7DAFBA684814662
:10102000E68484F8388026E00120BDE8F883E08C6F
:10103000401EE084A0684B46B0F5805F4FF0000290
:101040004FF080012046009703D000F071F9E8B915
:101050000DE000F06DF9C8B928882168C0F30800D8
:101060004860206908B16D1C05E0AD1C03E02168F3
:1010700015F8010B4860E08C0028D8D14B460022BF
:1010800040212046009700F053F908B10320CCE737
:10109000202084F839000020C7E70220C5E7FEE7DA
:1010A0000D4808B5016841F4800101600068002224
:1010B00000F48000009011463A20FFF7F7FB3A2039
:1010C000FFF7E6FB002211464620FFF7EFFBBDE8E5
:1010D00008404620FFF7DCBB303802400D4808B519
:1010E000016841F001010160016801F00101009116
:1010F000016841F002010160016801F00201009104
:10110000016841F080010160006800F080000090FB
:1011100008BD0000303802400C4810B50A49016093
:101120004FF4E1314160002181600C22C160C0E9CF
:1011300004128161C161FFF799FE002803D0BDE868
:101140001040FFF72EB910BD00100140180000201C
:10115000FEE7704770477047FFF740BB30B593B06C
:1011600030216846FFF764F814210CA8FFF760F8F7
:1011700019480025016841F080510160006800F0C5
:10118000805011901548016841F480410160006869
:10119000022400F48040119001200090000401908E
:1011A0008001CDE9064006200890A820CDE9090479
:1011B00004200B906846FFF797FC0CA90F2081E8EC
:1011C00031004FF4A0500F90E002109005210CA8C0
:1011D000FFF79EFB13B030BD403802400070004066
:1011E0000548016841F47001016003494FF0006057
:1011F000803908607047000088ED00E02421014834
:10120000FFF79EB8180100202DE9F0410446006860
:101210000169E26821F44051114301612169A0682C
:10122000E26908436169114308432168CA6849F2C9
:101230000C639A430243CA6020684169A26921F4A1
:10124000407111434161E069192764253226B0F5E8
:10125000004F354A354920684FF0000806D08842D3
:1012600001D0904236D1FFF7FDFB35E0884201D036
:10127000904202D1FFF7F6FB01E0FFF7E3FB616864
:101280004A18A0FB070148EB0803FEF799FF014647
:10129000B0FBF5F00201B1FBF5F06FF01803584315
:1012A00001EB800006EBC000B0FBF5F000F0F800A9
:1012B00002EB4002B1FBF5F0584301EB800006EB76
:1012C000C000B0FBF5F000F0070021681044886012
:1012D000BDE8F081FFF7B6FB61688B0F8A00A0FBC9
:1012E0000701FEF76DFF0146B0FBF5F06FF0180245
:1012F000504301EB800006EB0010B0FBF5F000F06E
:10130000F002B1FBF5F002EB0012B1FBF5F06FF06B
:101310001803584301EB800006EB0010B0FBF5F01A
:1013200000F00F00D1E70000001401400010014060
:101330002DE9F041984617460E460446069D1DE0ED
:10134000681C1BD02DB1FFF743FAA0EB0800A842A0
:1013500014D92068C16821F4D071C1602068416946
:1013600021F001014161202084F8390084F83A001D
:10137000002084F838000320BDE8F0812068006870
:1013800036EA000004D00020B842D9D00020F3E7AC
:101390000120F9E7144808B500680168890603D5FB
:1013A00001684068009008BD10490968C906FAD56F
:1013B0000168406800900E4801680A6822F0010246
:1013C0000A6001684A680B4BC2F124021A80242289
:1013D0004A6009498A6A22F400228A620068016828
:1013E00041F00101016008BD18000020001001401B
:1013F000B80000200000002000600240FEE700006E
:10140000014A024900F023B87114000814000020BA
:101410000907090E002804DB00F1E02080F8001421
:10142000704700F00F0000F1E02080F8141D7047B5
:1014300002E008C8121F08C1002AFAD1704770479D
:10144000002001E001C1121F002AFBD170472DE9E5
:10145000F04116460F460446002503E03946B047E2
:10146000641C6D1C20780028F8D12846BDE8F08166
:1014700013B54FF47A73012269460248FFF7B2FDB3
:1014800000981CBD18000020FFF7B0F9FFF766FEBA
:10149000FFF724FEFFF704FEFFF73EFEFFF7AEFE68
:1014A00001A0FFF7ADFFFEE70D0A20B5E7BFD8CAE0
:1014B000D3BEF5B2E2CAD420CEE9BAC6C1D6CAC7F5
:1014C000CED2B6F9D7D30D0A0000000000061016E0
:1014D00000061016000000000000000001020304D6
:1014E0000607080900000000010203040C150008AB
:1014F0000000002018000000301400082415000827
:10150000180000202805000040140008000000001A
:101510000100000010000000000000000024F400A2
:0415200000000000C7
:040000050800018965
:00000001FF
